{
  "_format": "hh-sol-artifact-1",
  "contractName": "StakingPool",
  "sourceName": "contracts/StakingPool.sol",
  "abi": [
    {
      "inputs": [],
      "stateMutability": "nonpayable",
      "type": "constructor"
    },
    {
      "anonymous": false,
      "inputs": [
        {
          "indexed": true,
          "internalType": "address",
          "name": "staker",
          "type": "address"
        },
        {
          "indexed": false,
          "internalType": "uint256",
          "name": "amountClaimed",
          "type": "uint256"
        },
        {
          "indexed": false,
          "internalType": "uint256",
          "name": "rewardsClaimed",
          "type": "uint256"
        }
      ],
      "name": "ClaimRewards",
      "type": "event"
    },
    {
      "anonymous": false,
      "inputs": [
        {
          "indexed": true,
          "internalType": "address",
          "name": "previousOwner",
          "type": "address"
        },
        {
          "indexed": true,
          "internalType": "address",
          "name": "newOwner",
          "type": "address"
        }
      ],
      "name": "OwnershipTransferred",
      "type": "event"
    },
    {
      "anonymous": false,
      "inputs": [
        {
          "indexed": false,
          "internalType": "address",
          "name": "account",
          "type": "address"
        }
      ],
      "name": "Paused",
      "type": "event"
    },
    {
      "anonymous": false,
      "inputs": [
        {
          "indexed": true,
          "internalType": "address",
          "name": "staker",
          "type": "address"
        },
        {
          "indexed": false,
          "internalType": "uint256",
          "name": "stakedAmount",
          "type": "uint256"
        }
      ],
      "name": "Stake",
      "type": "event"
    },
    {
      "anonymous": false,
      "inputs": [
        {
          "indexed": false,
          "internalType": "address",
          "name": "account",
          "type": "address"
        }
      ],
      "name": "Unpaused",
      "type": "event"
    },
    {
      "anonymous": false,
      "inputs": [
        {
          "indexed": true,
          "internalType": "address",
          "name": "staker",
          "type": "address"
        },
        {
          "indexed": false,
          "internalType": "uint256",
          "name": "amountWithdrawn",
          "type": "uint256"
        }
      ],
      "name": "WithdrawStake",
      "type": "event"
    },
    {
      "inputs": [
        {
          "internalType": "bytes",
          "name": "pubkey",
          "type": "bytes"
        },
        {
          "internalType": "bytes",
          "name": "withdrawal_credentials",
          "type": "bytes"
        },
        {
          "internalType": "bytes",
          "name": "signature",
          "type": "bytes"
        },
        {
          "internalType": "bytes32",
          "name": "deposit_data_root",
          "type": "bytes32"
        }
      ],
      "name": "depositStake",
      "outputs": [],
      "stateMutability": "nonpayable",
      "type": "function"
    },
    {
      "inputs": [],
      "name": "goerliStakingAddress",
      "outputs": [
        {
          "internalType": "address",
          "name": "",
          "type": "address"
        }
      ],
      "stateMutability": "view",
      "type": "function"
    },
    {
      "inputs": [],
      "name": "mainnetStakingAddress",
      "outputs": [
        {
          "internalType": "address",
          "name": "",
          "type": "address"
        }
      ],
      "stateMutability": "view",
      "type": "function"
    },
    {
      "inputs": [],
      "name": "owner",
      "outputs": [
        {
          "internalType": "address",
          "name": "",
          "type": "address"
        }
      ],
      "stateMutability": "view",
      "type": "function"
    },
    {
      "inputs": [],
      "name": "pause",
      "outputs": [],
      "stateMutability": "nonpayable",
      "type": "function"
    },
    {
      "inputs": [],
      "name": "paused",
      "outputs": [
        {
          "internalType": "bool",
          "name": "",
          "type": "bool"
        }
      ],
      "stateMutability": "view",
      "type": "function"
    },
    {
      "inputs": [],
      "name": "poolFull",
      "outputs": [
        {
          "internalType": "bool",
          "name": "",
          "type": "bool"
        }
      ],
      "stateMutability": "view",
      "type": "function"
    },
    {
      "inputs": [],
      "name": "renounceOwnership",
      "outputs": [],
      "stateMutability": "nonpayable",
      "type": "function"
    },
    {
      "inputs": [
        {
          "internalType": "address",
          "name": "staker",
          "type": "address"
        }
      ],
      "name": "rewardOf",
      "outputs": [
        {
          "internalType": "uint256",
          "name": "",
          "type": "uint256"
        }
      ],
      "stateMutability": "view",
      "type": "function"
    },
    {
      "inputs": [],
      "name": "rewardsOn",
      "outputs": [
        {
          "internalType": "bool",
          "name": "",
          "type": "bool"
        }
      ],
      "stateMutability": "view",
      "type": "function"
    },
    {
      "inputs": [],
      "name": "stakeIntoPool",
      "outputs": [],
      "stateMutability": "payable",
      "type": "function"
    },
    {
      "inputs": [
        {
          "internalType": "address",
          "name": "staker",
          "type": "address"
        }
      ],
      "name": "stakeOf",
      "outputs": [
        {
          "internalType": "uint256",
          "name": "",
          "type": "uint256"
        }
      ],
      "stateMutability": "view",
      "type": "function"
    },
    {
      "inputs": [],
      "name": "totalEthStaked",
      "outputs": [
        {
          "internalType": "uint256",
          "name": "",
          "type": "uint256"
        }
      ],
      "stateMutability": "view",
      "type": "function"
    },
    {
      "inputs": [],
      "name": "totalRewardsReceived",
      "outputs": [
        {
          "internalType": "uint256",
          "name": "",
          "type": "uint256"
        }
      ],
      "stateMutability": "view",
      "type": "function"
    },
    {
      "inputs": [
        {
          "internalType": "address",
          "name": "newOwner",
          "type": "address"
        }
      ],
      "name": "transferOwnership",
      "outputs": [],
      "stateMutability": "nonpayable",
      "type": "function"
    },
    {
      "inputs": [],
      "name": "turnOffPoolFull",
      "outputs": [],
      "stateMutability": "nonpayable",
      "type": "function"
    },
    {
      "inputs": [],
      "name": "turnOnRewards",
      "outputs": [],
      "stateMutability": "nonpayable",
      "type": "function"
    },
    {
      "inputs": [],
      "name": "unpause",
      "outputs": [],
      "stateMutability": "nonpayable",
      "type": "function"
    },
    {
      "inputs": [
        {
          "internalType": "uint256",
          "name": "amount",
          "type": "uint256"
        }
      ],
      "name": "unstakeFromPool",
      "outputs": [],
      "stateMutability": "nonpayable",
      "type": "function"
    },
    {
      "inputs": [
        {
          "internalType": "uint256",
          "name": "amount",
          "type": "uint256"
        }
      ],
      "name": "withdrawStakeFromPool",
      "outputs": [],
      "stateMutability": "nonpayable",
      "type": "function"
    },
    {
      "stateMutability": "payable",
      "type": "receive"
    }
  ],
  "bytecode": "0x608060405234801561001057600080fd5b5060008060006101000a81548160ff02191690831515021790555061004761003c61012860201b60201c565b61013060201b60201c565b6000600360006101000a81548160ff0219169083151502179055506000600360016101000a81548160ff0219169083151502179055506f219ab540356cbb839cbe05303d7705fa600360026101000a81548173ffffffffffffffffffffffffffffffffffffffff021916908373ffffffffffffffffffffffffffffffffffffffff16021790555073ff50ed3d0ec03ac01d4c79aad74928bff48a7b2b600460006101000a81548173ffffffffffffffffffffffffffffffffffffffff021916908373ffffffffffffffffffffffffffffffffffffffff1602179055506101f5565b600033905090565b60008060019054906101000a900473ffffffffffffffffffffffffffffffffffffffff16905081600060016101000a81548173ffffffffffffffffffffffffffffffffffffffff021916908373ffffffffffffffffffffffffffffffffffffffff1602179055508173ffffffffffffffffffffffffffffffffffffffff168173ffffffffffffffffffffffffffffffffffffffff167f8be0079c531659141344cd1fd0a4f28419497f9722a3daafe3b4186f6b6457e060405160405180910390a35050565b611d3e806102046000396000f3fe6080604052600436106101235760003560e01c80638456cb59116100a0578063ec3ca69811610064578063ec3ca6981461037b578063ed744625146103a6578063f26d8ce8146103cf578063f2fde38b146103e6578063f6c5aeb21461040f57610142565b80638456cb59146102db5780638da5cb5b146102f257806398c61be51461031d578063a8d3687d14610327578063cf504d021461035057610142565b80634d5428a7116100e75780634d5428a71461022c57806354413ec8146102575780635c975abb146102825780636cf70f26146102ad578063715018a6146102c457610142565b8063065266da146101475780631d62ebd9146101725780633f4ba83a146101af57806342623360146101c6578063446524811461020357610142565b3661014257346002600082825461013a91906111cf565b925050819055005b600080fd5b34801561015357600080fd5b5061015c61043a565b604051610169919061121e565b60405180910390f35b34801561017e57600080fd5b50610199600480360381019061019491906112a1565b61044d565b6040516101a691906112dd565b60405180910390f35b3480156101bb57600080fd5b506101c46104fa565b005b3480156101d257600080fd5b506101ed60048036038101906101e891906112a1565b61050c565b6040516101fa91906112dd565b60405180910390f35b34801561020f57600080fd5b5061022a60048036038101906102259190611324565b610555565b005b34801561023857600080fd5b50610241610823565b60405161024e91906112dd565b60405180910390f35b34801561026357600080fd5b5061026c610829565b6040516102799190611360565b60405180910390f35b34801561028e57600080fd5b5061029761084f565b6040516102a4919061121e565b60405180910390f35b3480156102b957600080fd5b506102c2610865565b005b3480156102d057600080fd5b506102d961088a565b005b3480156102e757600080fd5b506102f061089e565b005b3480156102fe57600080fd5b506103076108b0565b6040516103149190611360565b60405180910390f35b6103256108d9565b005b34801561033357600080fd5b5061034e60048036038101906103499190611416565b610a8c565b005b34801561035c57600080fd5b50610365610bc6565b60405161037291906112dd565b60405180910390f35b34801561038757600080fd5b50610390610bcc565b60405161039d9190611360565b60405180910390f35b3480156103b257600080fd5b506103cd60048036038101906103c89190611324565b610bf2565b005b3480156103db57600080fd5b506103e4610e39565b005b3480156103f257600080fd5b5061040d600480360381019061040891906112a1565b610e5e565b005b34801561041b57600080fd5b50610424610ee1565b604051610431919061121e565b60405180910390f35b600360009054906101000a900460ff1681565b600080600560008473ffffffffffffffffffffffffffffffffffffffff1673ffffffffffffffffffffffffffffffffffffffff168152602001908152602001600020549050600081036104a45760009150506104f5565b6000600154670de0b6b3a7640000836104bd91906114df565b6104c79190611550565b90506000670de0b6b3a7640000600254836104e291906114df565b6104ec9190611550565b90508093505050505b919050565b610502610ef4565b61050a610f72565b565b6000600560008373ffffffffffffffffffffffffffffffffffffffff1673ffffffffffffffffffffffffffffffffffffffff168152602001908152602001600020549050919050565b61055d610fd4565b600360019054906101000a900460ff166105ac576040517f08c379a00000000000000000000000000000000000000000000000000000000081526004016105a3906115de565b60405180910390fd5b6000600560003373ffffffffffffffffffffffffffffffffffffffff1673ffffffffffffffffffffffffffffffffffffffff16815260200190815260200160002054905081811015610633576040517f08c379a000000000000000000000000000000000000000000000000000000000815260040161062a9061164a565b60405180910390fd5b6000600154670de0b6b3a76400008361064c91906114df565b6106569190611550565b90506000670de0b6b3a76400006002548361067191906114df565b61067b9190611550565b90506000670de0b6b3a764000084670de0b6b3a76400008761069d91906114df565b6106a79190611550565b836106b291906114df565b6106bc9190611550565b905084600560003373ffffffffffffffffffffffffffffffffffffffff1673ffffffffffffffffffffffffffffffffffffffff168152602001908152602001600020600082825461070d919061166a565b9250508190555060003373ffffffffffffffffffffffffffffffffffffffff16828761073991906111cf565b604051610745906116cf565b60006040518083038185875af1925050503d8060008114610782576040519150601f19603f3d011682016040523d82523d6000602084013e610787565b606091505b50509050806107cb576040517f08c379a00000000000000000000000000000000000000000000000000000000081526004016107c290611730565b60405180910390fd5b3373ffffffffffffffffffffffffffffffffffffffff167f674a8930d4166ce2352c3dc1e9ff633595db479f71f3741270a0a73a52cb7b0f8784604051610813929190611750565b60405180910390a2505050505050565b60025481565b600460009054906101000a900473ffffffffffffffffffffffffffffffffffffffff1681565b60008060009054906101000a900460ff16905090565b61086d610ef4565b6000600360006101000a81548160ff021916908315150217905550565b610892610ef4565b61089c600061101e565b565b6108a6610ef4565b6108ae6110e3565b565b60008060019054906101000a900473ffffffffffffffffffffffffffffffffffffffff16905090565b6108e1610fd4565b600360009054906101000a900460ff1615610931576040517f08c379a0000000000000000000000000000000000000000000000000000000008152600401610928906117c5565b60405180910390fd5b60003411610974576040517f08c379a000000000000000000000000000000000000000000000000000000000815260040161096b90611831565b60405180910390fd5b6801bc3a5d675c4100003460015461098c91906111cf565b11156109cd576040517f08c379a00000000000000000000000000000000000000000000000000000000081526004016109c49061189d565b60405180910390fd5b34600560003373ffffffffffffffffffffffffffffffffffffffff1673ffffffffffffffffffffffffffffffffffffffff1681526020019081526020016000206000828254610a1c91906111cf565b925050819055503460016000828254610a3591906111cf565b925050819055503373ffffffffffffffffffffffffffffffffffffffff167febedb8b3c678666e7f36970bc8f57abf6d8fa2e828c0da91ea5b75bf68ed101a34604051610a8291906112dd565b60405180910390a2565b610a94610ef4565b6001600360006101000a81548160ff0219169083151502179055506801bc16d674ec800000471015610afb576040517f08c379a0000000000000000000000000000000000000000000000000000000008152600401610af29061192f565b60405180910390fd5b600460009054906101000a900473ffffffffffffffffffffffffffffffffffffffff1673ffffffffffffffffffffffffffffffffffffffff1663228951186801bc16d674ec80000089898989604051602001610b58929190611983565b6040516020818303038152906040528888886040518863ffffffff1660e01b8152600401610b8b96959493929190611a68565b6000604051808303818588803b158015610ba457600080fd5b505af1158015610bb8573d6000803e3d6000fd5b505050505050505050505050565b60015481565b600360029054906101000a900473ffffffffffffffffffffffffffffffffffffffff1681565b610bfa610fd4565b600360009054906101000a900460ff1615610c4a576040517f08c379a0000000000000000000000000000000000000000000000000000000008152600401610c41906117c5565b60405180910390fd5b80600560003373ffffffffffffffffffffffffffffffffffffffff1673ffffffffffffffffffffffffffffffffffffffff168152602001908152602001600020541015610ccc576040517f08c379a0000000000000000000000000000000000000000000000000000000008152600401610cc39061164a565b60405180910390fd5b80600560003373ffffffffffffffffffffffffffffffffffffffff1673ffffffffffffffffffffffffffffffffffffffff1681526020019081526020016000206000828254610d1b919061166a565b925050819055508060016000828254610d34919061166a565b9250508190555060003373ffffffffffffffffffffffffffffffffffffffff1682604051610d61906116cf565b60006040518083038185875af1925050503d8060008114610d9e576040519150601f19603f3d011682016040523d82523d6000602084013e610da3565b606091505b5050905080610de7576040517f08c379a0000000000000000000000000000000000000000000000000000000008152600401610dde90611b12565b60405180910390fd5b3373ffffffffffffffffffffffffffffffffffffffff167f141ef67c4a6d3ec2adfb2f66d33c2b11de5b4f34344757554d430570b18a92ec83604051610e2d91906112dd565b60405180910390a25050565b610e41610ef4565b6001600360016101000a81548160ff021916908315150217905550565b610e66610ef4565b600073ffffffffffffffffffffffffffffffffffffffff168173ffffffffffffffffffffffffffffffffffffffff1603610ed5576040517f08c379a0000000000000000000000000000000000000000000000000000000008152600401610ecc90611ba4565b60405180910390fd5b610ede8161101e565b50565b600360019054906101000a900460ff1681565b610efc611145565b73ffffffffffffffffffffffffffffffffffffffff16610f1a6108b0565b73ffffffffffffffffffffffffffffffffffffffff1614610f70576040517f08c379a0000000000000000000000000000000000000000000000000000000008152600401610f6790611c10565b60405180910390fd5b565b610f7a61114d565b60008060006101000a81548160ff0219169083151502179055507f5db9ee0a495bf2e6ff9c91a7834c1ba4fdd244a5e8aa4e537bd38aeae4b073aa610fbd611145565b604051610fca9190611360565b60405180910390a1565b610fdc61084f565b1561101c576040517f08c379a000000000000000000000000000000000000000000000000000000000815260040161101390611c7c565b60405180910390fd5b565b60008060019054906101000a900473ffffffffffffffffffffffffffffffffffffffff16905081600060016101000a81548173ffffffffffffffffffffffffffffffffffffffff021916908373ffffffffffffffffffffffffffffffffffffffff1602179055508173ffffffffffffffffffffffffffffffffffffffff168173ffffffffffffffffffffffffffffffffffffffff167f8be0079c531659141344cd1fd0a4f28419497f9722a3daafe3b4186f6b6457e060405160405180910390a35050565b6110eb610fd4565b60016000806101000a81548160ff0219169083151502179055507f62e78cea01bee320cd4e420270b5ea74000d11b0c9f74754ebdbfc544b05a25861112e611145565b60405161113b9190611360565b60405180910390a1565b600033905090565b61115561084f565b611194576040517f08c379a000000000000000000000000000000000000000000000000000000000815260040161118b90611ce8565b60405180910390fd5b565b6000819050919050565b7f4e487b7100000000000000000000000000000000000000000000000000000000600052601160045260246000fd5b60006111da82611196565b91506111e583611196565b92508282019050808211156111fd576111fc6111a0565b5b92915050565b60008115159050919050565b61121881611203565b82525050565b6000602082019050611233600083018461120f565b92915050565b600080fd5b600080fd5b600073ffffffffffffffffffffffffffffffffffffffff82169050919050565b600061126e82611243565b9050919050565b61127e81611263565b811461128957600080fd5b50565b60008135905061129b81611275565b92915050565b6000602082840312156112b7576112b6611239565b5b60006112c58482850161128c565b91505092915050565b6112d781611196565b82525050565b60006020820190506112f260008301846112ce565b92915050565b61130181611196565b811461130c57600080fd5b50565b60008135905061131e816112f8565b92915050565b60006020828403121561133a57611339611239565b5b60006113488482850161130f565b91505092915050565b61135a81611263565b82525050565b60006020820190506113756000830184611351565b92915050565b600080fd5b600080fd5b600080fd5b60008083601f8401126113a05761139f61137b565b5b8235905067ffffffffffffffff8111156113bd576113bc611380565b5b6020830191508360018202830111156113d9576113d8611385565b5b9250929050565b6000819050919050565b6113f3816113e0565b81146113fe57600080fd5b50565b600081359050611410816113ea565b92915050565b60008060008060008060006080888a03121561143557611434611239565b5b600088013567ffffffffffffffff8111156114535761145261123e565b5b61145f8a828b0161138a565b9750975050602088013567ffffffffffffffff8111156114825761148161123e565b5b61148e8a828b0161138a565b9550955050604088013567ffffffffffffffff8111156114b1576114b061123e565b5b6114bd8a828b0161138a565b935093505060606114d08a828b01611401565b91505092959891949750929550565b60006114ea82611196565b91506114f583611196565b925082820261150381611196565b9150828204841483151761151a576115196111a0565b5b5092915050565b7f4e487b7100000000000000000000000000000000000000000000000000000000600052601260045260246000fd5b600061155b82611196565b915061156683611196565b92508261157657611575611521565b5b828204905092915050565b600082825260208201905092915050565b7f43757272656e746c792063616e6e6f7420636c61696d20726577617264730000600082015250565b60006115c8601e83611581565b91506115d382611592565b602082019050919050565b600060208201905081810360008301526115f7816115bb565b9050919050565b7f496e73756666696369656e7420616d6f756e7400000000000000000000000000600082015250565b6000611634601383611581565b915061163f826115fe565b602082019050919050565b6000602082019050818103600083015261166381611627565b9050919050565b600061167582611196565b915061168083611196565b9250828203905081811115611698576116976111a0565b5b92915050565b600081905092915050565b50565b60006116b960008361169e565b91506116c4826116a9565b600082019050919050565b60006116da826116ac565b9150819050919050565b7f4661696c656420746f20756e7374616b65000000000000000000000000000000600082015250565b600061171a601183611581565b9150611725826116e4565b602082019050919050565b600060208201905081810360008301526117498161170d565b9050919050565b600060408201905061176560008301856112ce565b61177260208301846112ce565b9392505050565b7f506f6f6c2069732066756c6c0000000000000000000000000000000000000000600082015250565b60006117af600c83611581565b91506117ba82611779565b602082019050919050565b600060208201905081810360008301526117de816117a2565b9050919050565b7f496e76616c696420616d6f756e74000000000000000000000000000000000000600082015250565b600061181b600e83611581565b9150611826826117e5565b602082019050919050565b6000602082019050818103600083015261184a8161180e565b9050919050565b7f506f6f6c206d6178206361706163697469790000000000000000000000000000600082015250565b6000611887601283611581565b915061189282611851565b602082019050919050565b600060208201905081810360008301526118b68161187a565b9050919050565b7f6465706f7369745374616b653a20696e73756666696369656e7420706f6f6c2060008201527f62616c616e636500000000000000000000000000000000000000000000000000602082015250565b6000611919602783611581565b9150611924826118bd565b604082019050919050565b600060208201905081810360008301526119488161190c565b9050919050565b82818337600083830152505050565b600061196a838561169e565b935061197783858461194f565b82840190509392505050565b600061199082848661195e565b91508190509392505050565b600082825260208201905092915050565b6000601f19601f8301169050919050565b60006119ca838561199c565b93506119d783858461194f565b6119e0836119ad565b840190509392505050565b600081519050919050565b60005b83811015611a145780820151818401526020810190506119f9565b60008484015250505050565b6000611a2b826119eb565b611a35818561199c565b9350611a458185602086016119f6565b611a4e816119ad565b840191505092915050565b611a62816113e0565b82525050565b60006080820190508181036000830152611a8381888a6119be565b90508181036020830152611a978187611a20565b90508181036040830152611aac8185876119be565b9050611abb6060830184611a59565b979650505050505050565b7f4661696c656420746f2077697468647261770000000000000000000000000000600082015250565b6000611afc601283611581565b9150611b0782611ac6565b602082019050919050565b60006020820190508181036000830152611b2b81611aef565b9050919050565b7f4f776e61626c653a206e6577206f776e657220697320746865207a65726f206160008201527f6464726573730000000000000000000000000000000000000000000000000000602082015250565b6000611b8e602683611581565b9150611b9982611b32565b604082019050919050565b60006020820190508181036000830152611bbd81611b81565b9050919050565b7f4f776e61626c653a2063616c6c6572206973206e6f7420746865206f776e6572600082015250565b6000611bfa602083611581565b9150611c0582611bc4565b602082019050919050565b60006020820190508181036000830152611c2981611bed565b9050919050565b7f5061757361626c653a2070617573656400000000000000000000000000000000600082015250565b6000611c66601083611581565b9150611c7182611c30565b602082019050919050565b60006020820190508181036000830152611c9581611c59565b9050919050565b7f5061757361626c653a206e6f7420706175736564000000000000000000000000600082015250565b6000611cd2601483611581565b9150611cdd82611c9c565b602082019050919050565b60006020820190508181036000830152611d0181611cc5565b905091905056fea2646970667358221220eb237832bdd1272eca9129ee630266eefd76963efd1d79ee394d9a6d071dfda764736f6c63430008110033",
  "linkReferences": {},
  "deployedLinkReferences": {}
}